:100000000C9463000C948B000C948B000C948B006C
:100010000C948B000C948B000C948B000C948B0034
:100020000C948B000C948B000C948B000C948B0024
:100030000C948B000C948B000C948B000C948B0014
:100040000C9408040C948B000C94D6030C94B0030D
:100050000C948B000C948B000C948B000C948B00F4
:100060000C9452040C948B00000000002400270024
:100070002A0000000000250028002B0000000000DE
:1000800023002600290004040404040404040202DA
:100090000202020203030303030301020408102007
:1000A0004080010204081020010204081020000012
:1000B0000008000201000003040700000000000027
:1000C00000006D057B0811241FBECFEFD8E0DEBF16
:1000D000CDBF22E0A6E4B1E001C01D92AF36B20769
:1000E000E1F711E0A0E0B1E0E2E0FAE102C0059042
:1000F0000D92A634B107D9F710E0C2E6D0E004C0F3
:100100002197FE010E94ED0AC136D107C9F70E946E
:10011000F8050C94F40C0C940000AF92BF92CF92AF
:10012000DF92EF92FF920F931F93CF93DF936C01B7
:100130007B018B01040F151FEB015E01AE18BF0898
:10014000C017D10759F06991D601ED91FC9101904A
:10015000F081E02DC6010995892B79F7C501DF9162
:10016000CF911F910F91FF90EF90DF90CF90BF90B4
:10017000AF900895FC01538D448D252F30E0842FDE
:1001800090E0821B930B541710F0CF9608950197BF
:100190000895FC01918D828D981761F0A28DAE0FAC
:1001A000BF2FB11D5D968C91928D9F5F9F73928F33
:1001B00090E008958FEF9FEF0895FC01918D828D5F
:1001C000981731F0828DE80FF11D858D90E008952C
:1001D0008FEF9FEF0895FC01918D228D892F90E084
:1001E000805C9F4F821B91098F739927089588EC3B
:1001F00091E00E94EB0021E0892B09F420E0822F9E
:10020000089580E090E0892B29F00E94F700811189
:100210000C9400000895FC01A48DA80FB92FB11D06
:10022000A35ABF4F2C91848D90E001968F7399272C
:10023000848FA689B7892C93A089B1898C9183700A
:1002400080648C93938D848D981306C00288F38903
:10025000E02D80818F7D80830895EF92FF920F9330
:100260001F93CF93DF93EC0181E0888F9B8D8C8D62
:1002700098131AC0E889F989808185FF15C09FB756
:10028000F894EE89FF896083E889F9898081837019
:10029000806480839FBF81E090E0DF91CF911F91C8
:1002A0000F91FF90EF900895F62E0B8D10E00F5FE9
:1002B0001F4F0F731127E02E8C8D8E110CC00FB6BF
:1002C00007FCFACFE889F989808185FFF5CFCE0157
:1002D0000E940B01F1CFEB8DEC0FFD2FF11DE35AC6
:1002E000FF4FF0829FB7F8940B8FEA89FB898081DA
:1002F0008062CFCF682F88EC91E00C942D01CF93D2
:10030000DF93EC01888D8823B9F0AA89BB89E8893D
:10031000F9898C9185FD03C0808186FD0DC00FB6E3
:1003200007FCF7CF8C9185FFF2CF808185FFEDCF61
:10033000CE010E940B01E9CFDF91CF910895833068
:1003400081F028F4813099F08230A9F00895873047
:10035000A9F08830C9F08430B1F4809180008F7D9D
:1003600003C0809180008F7780938000089584B5CA
:100370008F7784BD089584B58F7DFBCF8091B000C9
:100380008F778093B00008958091B0008F7DF9CF72
:100390001F93CF93DF93282F30E0F901E255FF4FF1
:1003A0008491F901E656FF4FD491F901EA57FF4FC6
:1003B000C491CC23A9F0162F81110E949F01EC2F2C
:1003C000F0E0EE0FFF1FEE58FF4FA591B4918FB7ED
:1003D000F894EC91111108C0D095DE23DC938FBF07
:1003E000DF91CF911F910895DE2BF8CFCF93DF934C
:1003F00090E0FC01E656FF4F24918A579F4FFC0185
:1004000084918823D1F090E0880F991FFC01E8596E
:10041000FF4FA591B491FC01EE58FF4FC591D491C7
:1004200061110EC09FB7F8948C91E22FE0958E2356
:100430008C932881E223E8839FBFDF91CF910895B9
:100440008FB7F894EC91E22BEC938FBFF6CF82300C
:10045000910538F0880F991F880F991F059701970C
:10046000F1F708953FB7F8948091BC019091BD01D8
:10047000A091BE01B091BF0126B5A89B05C02F3F3A
:1004800019F00196A11DB11D3FBFBA2FA92F982FBA
:100490008827BC01CD01620F711D811D911D42E0B5
:1004A000660F771F881F991F4A95D1F708952091ED
:1004B0006D01260F3327331F21323105ECF42091D3
:1004C0009101FC0190E080E0243069F082E0089521
:1004D000A0916D012191AC01435B5E4FA40FB52F3C
:1004E000B11D2C930196861798F380916D01680FCA
:1004F00060936D0180E0089581E0089508958FEF85
:100500009FEF08958FEF9FEF08958091460190E04F
:100510009195819591090895CF93DF93CB01EA01DD
:10052000642F0E945702CE01DF91CF910895CF939F
:10053000DF931F92CDB7DEB7698361E0CE010196EC
:100540000E94570281E090E00F90DF91CF910895D3
:1005500090E080E00895CF93C82F61E082E00E9490
:10056000F60160E082E00E94C80161E083E00E9441
:10057000F60160E083E00E94C801C1110AC0109238
:10058000C1011092C00184E690E090930101809334
:100590000001CF910895CF92DF92EF92FF92CF9317
:1005A000DF93EB01682F70E090E080E00E94890803
:1005B0009B01AC0160E070E08AE794E40E944C0A81
:1005C00020E030E040E05FE30E94EA086B017C013C
:1005D000BE01645F7F4F90E080E00E948908A70120
:1005E00096010E94840887FF13C0BE016A5F7F4F97
:1005F00090E080E00E9489089B01AC01C701B60130
:100600000E94DF090E94BE0A7093C1016093C0017D
:100610002697D0930101C0930001DF91CF91FF9005
:10062000EF90DF90CF9008958C3541F48CE590E009
:100630000E947A0185EC90E00C947A018B3139F4B8
:100640008CE590E00E947A0181EB90E0F5CF682F75
:1006500088EC91E00C942D01E091C60191E09E0F91
:100660009093C601F0E0EE53FE4F808381E0961731
:1006700008F480E008951F93CF93DF9385ED809376
:10068000BC008091490190914A01A0914B01B09129
:100690004C010796A11DB11D23E0B695A79597952E
:1006A00087952A95D1F72091BC0024FD03C01092B4
:1006B000910152C04091490150914A0160914B0112
:1006C00070914C01452B462B472B69F30097A105F0
:1006D000B10541F025E32A95F1F700000197A10942
:1006E000B109E1CF80914801C1E0C093470188235F
:1006F00099F1D091B8001091BA008091BC008A7B2A
:100700008093BC0060E082E10E94C80160E083E168
:100710000E94C80110929101C0939301109292011E
:1007200061E082E10E94C80161E083E10E94C801AA
:100730008091B9008E7F8093B9008091B9008D7F40
:100740008093B90088E48093B80085E48093BC006E
:100750001093BA00D093B800DF91CF911F91089504
:100760001F920F920FB60F9211242F933F934F9326
:100770005F936F937F938F939F93AF93BF93EF9309
:10078000FF9388EC91E00E940B01FF91EF91BF91E4
:10079000AF919F918F917F916F915F914F913F9119
:1007A0002F910F900FBE0F901F9018951F920F92D0
:1007B0000FB60F9211242F938F939F93EF93FF9374
:1007C000E091D801F091D9018081E091DE01F091B2
:1007D000DF0182FD1BC090818091E1018F5F8F73EB
:1007E0002091E201821741F0E091E101F0E0E8534D
:1007F000FE4F958F8093E101FF91EF919F918F9133
:100800002F910F900FBE0F901F9018958081F4CFFD
:100810001F920F920FB60F9211242F933F938F9335
:100820009F93AF93BF938091B8019091B901A0912C
:10083000BA01B091BB013091B70123E0230F2D37EE
:1008400058F50196A11DB11D2093B7018093B80101
:100850009093B901A093BA01B093BB018091BC0100
:100860009091BD01A091BE01B091BF010196A11D63
:10087000B11D8093BC019093BD01A093BE01B093C4
:10088000BF01BF91AF919F918F913F912F910F9099
:100890000FBE0F901F90189526E8230F0296A11DFA
:1008A000B11DD2CF1F920F920FB60F9211242F932A
:1008B0003F934F935F936F937F938F939F93AF93E8
:1008C000BF93EF93FF938091B900887F803609F43E
:1008D0004AC0F0F5883209F4A5C018F5803109F452
:1008E00099C0B8F4882309F4F5C0883009F492C09F
:1008F000FF91EF91BF91AF919F918F917F916F91F8
:100900005F914F913F912F910F900FBE0F901F90CD
:100910001895883109F486C0803251F78093900190
:1009200014C0803409F49BC040F48033B9F3883399
:10093000F9F68093900185ECAEC0803509F483C050
:10094000883509F494C0883499F60E943B03D0CFCF
:10095000883909F48AC038F5883729F050F4883688
:1009600011F0803729F683E08093910110928F0176
:1009700055C0883809F479C0803919F0803809F0F9
:10098000B7CF80918F01803208F06FC0E0918F0166
:1009900081E08E0F80938F018091BB00F0E0E159E0
:1009A000FE4F80833BC0803B39F0D0F4803A09F49D
:1009B00077C0883A09F09CCF84E08093910110922F
:1009C0006E0110926D01F0E0E0E0099580916D01FB
:1009D00081110FC081E080936D0110924D0109C01B
:1009E000803C09F4A8CF883C09F4A5CF883B09F0E6
:1009F0007FCFE0916E0181E08E0F80936E01F0E079
:100A0000E35BFE4F80818093BB0090916E018091EB
:100A10006D0129C08091B6018093BB0085EC809365
:100A2000BC0066CF9091B5018091B401981758F53C
:100A3000E091B50181E08E0F8093B501F0E0EC56B6
:100A4000FE4F8081E9CFE091B50181E08E0F809368
:100A5000B5018091BB00F0E0EC56FE4F8083909191
:100A6000B5018091B4019817C8F285E8D8CFE0911C
:100A7000B50181E08E0F8093B5018091BB00F0E05D
:100A8000EC56FE4F80838091930181115ECF81E00F
:100A90008093920184EA8093BC001092910128CF48
:100AA00085EC8093BC001092910180918F0180327F
:100AB00030F4E0918F01F0E0E159FE4F1082609137
:100AC0008F0170E08FE691E0F0E0E0E00995109290
:100AD0008F010ECF1092900138CF1092CB0110925F
:100AE000CA0188EE93E0A0E0B0E08093CC0190933F
:100AF000CD01A093CE01B093CF018CE091E0909313
:100B0000C9018093C80185EC90E09093D501809352
:100B1000D40184EC90E09093D7018093D60180ECCF
:100B200090E09093D9018093D80181EC90E090936C
:100B3000DB018093DA0182EC90E09093DD018093F9
:100B4000DC0186EC90E09093DF018093DE0110924F
:100B5000E1011092E2011092E3011092E40110927F
:100B6000660210926502109268021092670210925B
:100B70006A02109269026BE270E090E080E00E94ED
:100B8000180C009701F190936602809365022AE2A7
:100B900030E030936802209367022091690230911F
:100BA0006A02232B11F4FC0110828AE290E09093F8
:100BB0006A02809369026AE171E080916502909116
:100BC00066020C94DE0C809165029091660200979B
:100BD00011F00E948F0B1092660210926502109223
:100BE0006A021092690210926802109267020895D8
:100BF000CF93DF93CDB7DEB7789484B5826084BDA0
:100C000084B5816084BD85B5826085BD85B5816010
:100C100085BD80916E00816080936E00109281008E
:100C20008091810082608093810080918100816049
:100C3000809381008091800081608093800080910A
:100C4000B10084608093B1008091B0008160809396
:100C5000B00080917A00846080937A0080917A005D
:100C6000826080937A0080917A00816080937A001C
:100C700080917A00806880937A001092C100E091A0
:100C8000D801F091D90182E08083E091D401F09104
:100C9000D5011082E091D601F091D70188E08083E0
:100CA0001092E001E091DC01F091DD0186E08083AB
:100CB000E091DA01F091DB01808180618083E09135
:100CC000DA01F091DB01808188608083E091DA01B4
:100CD000F091DB01808180688083E091DA01F091FE
:100CE000DB0180818F7D80831092C70181E00E94AB
:100CF000AB0287E790E09093C1018093C00190938D
:100D000001018093000120E0622E20E0722EE0902D
:100D1000C001F090C101E114F10401F160E082E052
:100D20000E94C801C0900001D0900101C6010E943C
:100D3000270261E083E00E94C801C7010E942702E8
:100D400061E082E00E94C801C6010E94270260E0C3
:100D500083E00E94C801C7010E94270288EC91E04D
:100D60000E94EB00892BE9F188EC91E00E94C90018
:100D70008B3109F042C061E083E00E94F60161E03E
:100D800083E00E94C8010E9432024B015C0194E69C
:100D9000C92ED12CE12CF12C0E943202681979095C
:100DA0008A099B09683E734081059105A8F321E0FB
:100DB000C21AD108E108F10838EE830E33E0931E21
:100DC000A11CB11CC114D104E104F10429F761E0B4
:100DD00083E00E94F60160E083E00E94C801109267
:100DE000C7016114710409F492CF0E94F7008823AF
:100DF00009F48DCF0E9400008ACF9091C7019634EC
:100E000009F41FC1C8F5913409F499C0943409F468
:100E10007FC091116BC11092C6018093C7018F33BF
:100E200001F7ADB6BEB6E0906902F0906A02C70164
:100E300001962DB73EB7281B390B0FB6F8943EBF6D
:100E40000FBE2DBFEDB7FEB731966F01892B29F08C
:100E5000E114F10409F043C010828E2D0E941403A6
:100E6000A701B60188EC91E00E948D000FB6F894BE
:100E7000BEBE0FBEADBEB3CF9F3409F43CC09035AB
:100E800009F47EC0993409F031C161E00E942C035D
:100E9000882309F4A6CF2091C20130E0F901E25580
:100EA000FF4F8491F901E656FF4FE490F901EA57AC
:100EB000FF4FF490FF2079F081110E949F01EF2DE8
:100EC000F0E0EE0FFF1FE458FF4FA591B491EC91B5
:100ED000EE2281E009F480E00E94140380CF60914B
:100EE000650270916602A701CF010E94E50CF60130
:100EF000EE0DFF1DB1CF62E00E942C03882309F4A0
:100F000070CF6091C3018091C2010E94C80112C0DC
:100F100062E00E942C03882309F463CF8091C3010F
:100F200061E0882319F0813029F460E08091C201EA
:100F30000E94F6018FEF90E00E947A0150CF61E0AD
:100F40000E942C03882309F44CCF8091C2018E307B
:100F500008F08E508770806480937C0080917A00C6
:100F6000806480937A0080917A0086FDFCCF809126
:100F70007800E0907900FE2C0E9414038F2DACCFF6
:100F800062E00E942C03882309F42BCFE090C30178
:100F9000CE2CD12CF090C20161E08F2D0E94F60181
:100FA000C114D10419F460E08F2DAFCFFFEFCF163D
:100FB000D10411F461E0F8CFEF2DF0E0E255FF4FDE
:100FC000E491E33021F148F4E130B9F0E230D1F0BE
:100FD00020E8C216D10474F7E6CFE73011F1E8300B
:100FE00041F1E430A9F78091800080628093800015
:100FF000D0928B00C0928A009DCF84B5806884BD5A
:10100000E7BC98CF84B5806284BDE8BC93CF809163
:101010008000806880938000D0928900C092880010
:1010200089CF8091B00080688093B000E092B300D7
:1010300081CF8091B00080628093B000E092B400D4
:1010400079CF61E00E942C03882309F4CACE109165
:10105000C20111110AC080E00E94AB021092C701C8
:101060008FEF90E00E947A01BCCE81E00E94AB023B
:10107000153020F5612F70E090E080E00E94890833
:1010800020E030E04AE754E40E94EA089B01AC010A
:1010900060E074E284E798E40E944C0A0E94BE0A71
:1010A00067307105D8F2665071097093C101609381
:1010B000C0017093010160930001D0CF68E370E03C
:1010C000183080F06AE270E01A3060F066E270E09A
:1010D0008AE01A3041F06EE170E08BE01B3019F0CD
:1010E00064E170E0812F0E94CB02B8CF1092C7015B
:1010F0008BE190E0B7CF80916502909166020097F6
:1011000011F00C948F0B08950E94C60808F481E03A
:101110000895E89409C097FB3EF4909580957095EA
:1011200061957F4F8F4F9F4F9923A9F0F92F96E933
:10113000BB279395F695879577956795B795F111A8
:10114000F8CFFAF4BB0F11F460FF1BC06F5F7F4F45
:101150008F4F9F4F16C0882311F096E911C0772357
:1011600021F09EE8872F762F05C0662371F096E860
:10117000862F70E060E02AF09A95660F771F881F2F
:10118000DAF7880F9695879597F90895990F0008D3
:10119000550FAA0BE0E8FEEF16161706E807F90749
:1011A000C0F012161306E407F50798F0621B730BE4
:1011B000840B950B39F40A2661F0232B242B252B65
:1011C00021F408950A2609F4A140A6958FEF811D08
:1011D000811D08950E94FD080C946E090E9460090B
:1011E00038F00E94670920F0952311F00C945709FC
:1011F0000C945D0911240C94A2090E947F0970F3DC
:10120000959FC1F3950F50E0551F629FF001729FAB
:10121000BB27F00DB11D639FAA27F00DB11DAA1FBA
:10122000649F6627B00DA11D661F829F2227B00D07
:10123000A11D621F739FB00DA11D621F839FA00D92
:10124000611D221F749F3327A00D611D231F849FE2
:10125000600D211D822F762F6A2F11249F57504039
:101260009AF0F1F088234AF0EE0FFF1FBB1F661FB4
:10127000771F881F91505040A9F79E3F510580F07D
:101280000C9457090C94A2095F3FE4F3983ED4F301
:10129000869577956795B795F795E7959F5FC1F721
:1012A000FE2B880F911D9695879597F9089597F9CC
:1012B0009F6780E870E060E008959FEF80EC0895FC
:1012C00000240A9416161706180609060895002425
:1012D0000A9412161306140605060895092E03949F
:1012E000000C11F4882352F0BB0F40F4BF2B11F413
:1012F00060FF04C06F5F7F4F8F4F9F4F089557FD72
:101300009058440F551F59F05F3F71F04795880F73
:1013100097FB991F61F09F3F79F08795089512160A
:1013200013061406551FF2CF4695F1DF08C01616B6
:1013300017061806991FF1CF869571056105089467
:101340000895E894BB2766277727CB0197F908957E
:101350002F923F924F925F926F927F928F929F92C5
:10136000AF92BF92CF92DF92EF92FF920F931F93B3
:10137000CF93DF93CDB7DEB7CA1BDB0B0FB6F89464
:10138000DEBF0FBECDBF09942A88398848885F84A4
:101390006E847D848C849B84AA84B984C884DF8015
:1013A000EE80FD800C811B81AA81B981CE0FD11DF9
:1013B0000FB6F894DEBF0FBECDBFED0108955058B3
:1013C000BB27AA270E94F7090C946E090E946009A6
:1013D00038F00E94670920F039F49F3F19F426F491
:1013E0000C945D090EF4E095E7FB0C945709E92F86
:1013F0000E947F0958F3BA1762077307840795079D
:1014000020F079F4A6F50C94A1090EF4E0950B2ECA
:10141000BA2FA02D0B01B90190010C01CA01A00146
:101420001124FF27591B99F0593F50F4503E68F1A1
:101430001A16F040A22F232F342F4427585FF3CFE2
:10144000469537952795A795F0405395C9F77EF4B3
:101450001F16BA0B620B730B840BBAF09150A1F0FC
:10146000FF0FBB1F661F771F881FC2F70EC0BA0F82
:10147000621F731F841F48F4879577956795B7950A
:10148000F7959E3F08F0B0CF9395880F08F0992705
:10149000EE0F9795879508950E94600A0C946E0947
:1014A0000E94670958F00E94600940F029F45F3FEC
:1014B00029F00C94570951110C94A2090C945D0960
:1014C0000E947F0968F39923B1F3552391F3951B8B
:1014D000550BBB27AA2762177307840738F09F5F55
:1014E0005F4F220F331F441FAA1FA9F335D00E2EC2
:1014F0003AF0E0E832D091505040E695001CCAF72F
:101500002BD0FE2F29D0660F771F881FBB1F2617F1
:1015100037074807AB07B0E809F0BB0B802DBF01C8
:10152000FF2793585F4F3AF09E3F510578F00C9497
:1015300057090C94A2095F3FE4F3983ED4F38695D3
:1015400077956795B795F7959F5FC9F7880F911DB8
:101550009695879597F90895E1E0660F771F881FA4
:10156000BB1F621773078407BA0720F0621B730B57
:10157000840BBA0BEE1F88F7E09508950E94870947
:1015800088F09F5798F0B92F9927B751B0F0E1F044
:10159000660F771F881F991F1AF0BA95C9F714C0F4
:1015A000B13091F00E94A109B1E008950C94A10915
:1015B000672F782F8827B85F39F0B93FCCF386952D
:1015C00077956795B395D9F73EF49095809570958A
:1015D00061957F4F8F4F9F4F0895EE0FFF1F05902E
:1015E000F491E02D09940F931F93CF93DF938230F2
:1015F000910510F482E090E0E0916D02F0916E02AE
:1016000030E020E0B0E0A0E0309799F421153105FA
:1016100009F44AC0281B390B24303105D8F58A81DA
:101620009B816115710589F1FB0193838283FE0122
:1016300011C0408151810281138148175907E0F0A0
:101640004817590799F4109761F012960C93129766
:1016500013961C933296CF01DF91CF911F910F917A
:10166000089500936D0210936E02F4CF2115310599
:1016700051F04217530738F0A901DB019A01BD016F
:10168000DF01F801C1CFEF01F9CF90936E02809393
:101690006D02CDCFFE01E20FF31F81939193225093
:1016A000310939832883D7CF20916B0230916C02A6
:1016B000232B41F4209104013091050130936C02F9
:1016C00020936B0220910201309103012115310515
:1016D00041F42DB73EB74091060150910701241BFC
:1016E000350BE0916B02F0916C02E217F307A0F466
:1016F0002E1B3F0B2817390778F0AC014E5F5F4F68
:101700002417350748F04E0F5F1F50936C0240932B
:101710006B02819391939FCFF0E0E0E09CCFCF9359
:10172000DF930097E9F0FC01329713821282A091B7
:101730006D02B0916E02ED0130E020E01097A1F44F
:1017400020813181820F931F20916B0230916C02B6
:101750002817390709F061C0F0936C02E0936B021F
:10176000DF91CF910895EA01CE17DF07E8F54A81AE
:101770005B819E0141155105B1F7E901FB83EA83C5
:1017800049915991C40FD51FEC17FD0761F4808171
:1017900091810296840F951FE90199838883828144
:1017A00093819B838A83F0E0E0E012968D919C9177
:1017B00013970097B9F52D913C911197CD010296A1
:1017C000820F931F20916B0230916C02281739070A
:1017D00039F6309751F510926E0210926D02B09367
:1017E0006C02A0936B02BCCFD383C2834081518132
:1017F000840F951FC817D90761F44E5F5F4F88812A
:101800009981480F591F518340838A819B8193831B
:1018100082832115310509F0B0CFF0936E02E09379
:101820006D029ECFFD01DC01C0CF13821282D7CFA3
:10183000B0E0A0E0EEE1FCE00C94AA098C01009776
:1018400051F4CB010E94F30A8C01C801CDB7DEB779
:10185000E0E10C94C609FC01E60FF71F9C01225041
:101860003109E217F30708F49DC0D901CD91DC914D
:101870001197C617D70798F0C530D10530F3CE01C0
:1018800004978617970708F3C61BD70B2297C193B7
:10189000D1936D937C93CF010E948F0BD6CF5B01C8
:1018A000AC1ABD0A4C018C0E9D1EA0916D02B09128
:1018B0006E02512C412CF12CE12C109731F58091C6
:1018C0006B0290916C028815990509F05CC0461670
:1018D000570608F058C080910201909103010097CB
:1018E00041F48DB79EB74091060150910701841BCA
:1018F000950BE817F90708F055C0F0936C02E093D8
:101900006B02F90171836083A0CF8D919C91119737
:1019100012966C90129713967C901397A815B905A0
:1019200059F56C0142E0C40ED11CCA14DB0420F14D
:10193000AC014A195B09DA011296159780F06282B0
:10194000738251834083D9016D937C93E114F10438
:1019500071F0D7011396FC93EE93129776CF2296EF
:101960008C0F9D1FF90191838083F301EFCFF093DA
:101970006E02E0936D0269CF4816590608F42C01F7
:101980007D01D3019ACFCB010E94F30A7C0100971D
:1019900049F0AE01B8010E94D50CC8010E948F0B1E
:1019A000870153CF10E000E050CFFB01DC0102C003
:1019B00001900D9241505040D8F70895FB01DC0191
:1019C00001900D920020E1F70895FB01DC014150E8
:1019D000504048F001900D920020C9F701C01D92BF
:1019E00041505040E0F7089510E0C2E6D0E004C056
:1019F000FE010E94ED0A2196C336D107C9F7F8947B
:021A0000FFCF16
:101A0200640000006F028000000000002D018D00C4
:101A1200BA007F01EB00C900DD0047534F4620505A
:101A2200726F6772616D61626C65204869676856A2
:101A32006F6C74616765204F7363696C61746F7258
:061A420020302E310000EF
:00000001FF
